:100000000C9462000C948A000C948A000C948A0070
:100010000C948A000C948A000C948A000C948A0038
:100020000C948A000C948A000C948A000C948A0028
:100030000C948A000C948A000C948A000C948A0018
:100040000C947B070C948A000C9449070C942307AA
:100050000C948A000C948A000C948A000C948A00F8
:100060000C948A000C948A000000000024002700F1
:100070002A0000000000250028002B0000000000DE
:1000800023002600290004040404040404040202DA
:100090000202020203030303030301020408102007
:1000A0004080010204081020010204081020000012
:1000B0000008000201000003040700000000000027
:1000C0000000C50711241FBECFEFD8E0DEBFCDBFB3
:1000D00011E0A0E0B1E0E8EAF9E102C005900D927C
:1000E000A83EB107D9F723E0A8EEB1E001C01D9208
:1000F000A531B207E1F710E0C2E6D0E004C02197D5
:10010000FE010E94CC0CC136D107C9F70E947F08BE
:100110000C94D20C0C94000096E0899FD00111241D
:10012000A257BD4F90967C936E935F9791E0919606
:100130009C939197E091FB02F091FC029091FA025E
:10014000992339F0309751F0811108C08091AA02AB
:100150000994309719F05C968C91FACF0895CF925C
:10016000DF92EF92FF920F931F9396E0899FF00129
:100170001124E257FD4F11A2278D30A12130310506
:1001800051F178F02230310509F451C023303105A6
:1001900009F452C01F910F91FF90EF90DF90CF9024
:1001A00008956623B9F361E070E00E948C002FB7D8
:1001B000F8948091ED019091EE01A091EF01B09142
:1001C000F0012FBF8093E6029093E702A093E8022C
:1001D000B093E902DFCF9FB7F894C090ED01D090C3
:1001E000EE01E090EF01F090F0019FBF0091E60278
:1001F0001091E7022091E8023091E902C01AD10A79
:10020000E20AF30A0091F8021091F90230E020E0CE
:100210000C151D052E053F0550F462E070E01F919E
:100220000F91FF90EF90DF90CF900C948C006111B4
:10023000B1CF63E070E0F3CF70E060E0F0CFAF9259
:10024000BF92CF92DF92EF92FF920F931F93CF93C3
:10025000DF936C017B018B01040F151FEB015E0125
:10026000AE18BF08C017D10759F06991D601ED91BA
:10027000FC910190F081E02DC6010995892B79F759
:10028000C501DF91CF911F910F91FF90EF90DF900B
:10029000CF90BF90AF900895FC01538D448D252FD2
:1002A00030E0842F90E0821B930B541710F0CF9610
:1002B000089501970895FC01918D828D981761F042
:1002C000A28DAE0FBF2FB11D5D968C91928D9F5F59
:1002D0009F73928F90E008958FEF9FEF0895FC0138
:1002E000918D828D981731F0828DE80FF11D858DEB
:1002F00090E008958FEF9FEF0895FC01918D228D7E
:10030000892F90E0805C9F4F821B91098F73992702
:10031000089581EF91E00E947D0121E0892B09F48D
:1003200020E0822F089580E090E0892B29F00E9440
:10033000890181110C9400000895FC01A48DA80F7F
:10034000B92FB11DA35ABF4F2C91848D90E0019617
:100350008F739927848FA689B7892C93A089B18937
:100360008C91837080648C93938D848D981306C0D8
:100370000288F389E02D80818F7D80830895EF923C
:10038000FF920F931F93CF93DF93EC0181E0888F4F
:100390009B8D8C8D98131AC0E889F989808185FF1F
:1003A00015C09FB7F894EE89FF896083E889F989C1
:1003B00080818370806480839FBF81E090E0DF91C3
:1003C000CF911F910F91FF90EF900895F62E0B8D16
:1003D00010E00F5F1F4F0F731127E02E8C8D8E11D1
:1003E0000CC00FB607FCFACFE889F989808185FF38
:1003F000F5CFCE010E949D01F1CFEB8DEC0FFD2FCB
:10040000F11DE35AFF4FF0829FB7F8940B8FEA89F2
:10041000FB8980818062CFCFCF93DF93EC01888D01
:100420008823B9F0AA89BB89E889F9898C9185FD6F
:1004300003C0808186FD0DC00FB607FCF7CF8C91FD
:1004400085FFF2CF808185FFEDCFCE010E949D0117
:10045000E9CFDF91CF910895833081F028F4813086
:1004600099F08230A9F008958730A9F08830C9F05A
:100470008430B1F4809180008F7D03C08091800032
:100480008F7780938000089584B58F7784BD089519
:1004900084B58F7DFBCF8091B0008F778093B000C3
:1004A00008958091B0008F7DF9CFCF93DF93282FEF
:1004B00030E0F901E255FF4F8491F901E656FF4F14
:1004C000D491F901EA57FF4FC491CC23A1F08111D7
:1004D0000E942C02EC2FF0E0EE0FFF1FE458FF4FBC
:1004E000A591B491EC91ED2381E090E009F480E0D6
:1004F000DF91CF91089580E090E0FACF862F0C94A1
:1005000055021F93CF93DF93282F30E0F901E25576
:10051000FF4F8491F901E656FF4FD491F901EA5754
:10052000FF4FC491CC23A9F0162F81110E942C02F9
:10053000EC2FF0E0EE0FFF1FEE58FF4FA591B491A6
:100540008FB7F894EC91111108C0D095DE23DC939D
:100550008FBFDF91CF911F910895DE2BF8CF862FAB
:10056000642F0C948102CF93DF9390E0FC01E65658
:10057000FF4F24918A579F4FFC0184918823C9F033
:1005800090E0880F991FFC01E859FF4FA591B491A5
:10059000FC01EE58FF4FC591D49161110DC09FB77A
:1005A000F8948C91209582238C938881282328832A
:1005B0009FBFDF91CF910895623051F49FB7F894B7
:1005C0003C91822F809583238C93E8812E2BEFCF53
:1005D0008FB7F894EC912E2B2C938FBFEACF862FF8
:1005E000642F0C94B3022F923F924F925F926F92BE
:1005F0007F928F929F92AF92BF92CF92DF92EF92B3
:10060000FF920F931F93CF93DF9322242394812C87
:10061000912C5401839466246A94762C56E0352EEE
:100620002092FA028FB7F8944091ED015091EE01BB
:100630006091EF017091F0018FBF8091EA0290917B
:10064000EB02A091EC02B091ED02481B590B6A0B32
:100650007B0B8091F6029091F702B0E0A0E0841746
:100660009507A607B707E0F6C0E08091F402C81727
:1006700060F4E091F002F091F102EC0FF11D62E004
:1006800080810E94B302CF5FF0CF512C8091F502A0
:10069000581608F05FC0052D10E0E091F202F091CD
:1006A000F302E00FF11F61E080810E94B302E0914C
:1006B000F202F091F302E00FF11F60E080810E94EE
:1006C0008102D501C401052C04C0880F991FAA1FFF
:1006D000BB1F0A94D2F76C017C01E094F094412C8A
:1006E0008091F4024816F8F4C42DD0E0E091F002B5
:1006F000F091F102EC0FFD1F80810E9455022496BB
:10070000CC0FDD1FC257DD4F892B41F488819981C1
:100710008C299D29998388834394E2CF888199818C
:100720008E219F21F7CFE091F202F091F302E00FCA
:10073000F11F61E080810E9481028091F20290911C
:10074000F302080F191F60E0F80180810E94B302D4
:1007500053949CCFCEE8D2E0FE01878D90A1892BE7
:1007600021F4148E768E658E11A2369682E0EA3CD4
:10077000F80799F710E08091F402181708F052C0BA
:1007800000E0E12EF12CEE0CFF1CF701EA56FD4FC4
:100790007F012091F502021708F042C0F701608145
:1007A0007181002E02C0769567950A94E2F7129F38
:1007B00090011124200F311DEEE8F2E080E0458D1C
:1007C000568D2417350709F470C08F5F36968A302E
:1007D000B1F760FF23C0EEE8F2E090E080E0448DE6
:1007E000411117C0E091EE02F091EF02E20FF31F0A
:1007F0006081389EF001399EF00D1124E257FD4FC3
:10080000648F368F258F10A2178E61E00E94AF0093
:1008100005C0019636968A30910509F70F5FB9CF6A
:100820001F5FA9CF80E099A19111892F2696F2E050
:10083000CA3CDF07C1F79FB7F8944091ED01509192
:10084000EE016091EF017091F0019FBF4093EA02C9
:100850005093EB026093EC027093ED02882309F44D
:10086000DFCE8091AF02882309F4DACE8091AD0209
:100870009091AE02019709F0D3CE8091AA0288230D
:1008800009F4CECEDF91CF911F910F91FF90EF90A1
:10089000DF90CF90BF90AF909F908F907F906F90A0
:1008A0005F904F903F902F9008956170AFCF3FB70A
:1008B000F8948091E9019091EA01A091EB01B09147
:1008C000EC0126B5A89B05C02F3F19F00196A11D8C
:1008D000B11D3FBFBA2FA92F982F8827BC01CD018A
:1008E000620F711D811D911D42E0660F771F881FE9
:1008F000991F4A95D1F70895089590E080E00895F2
:10090000CF93DF93EC0160E08E810E94810261E071
:100910008E810E94810260E08E810E9481028BE8BC
:1009200091E00197F1F7DF91CF910895CF92DF9297
:10093000EF92FF920F931F93CF93DF936C017C0193
:1009400087E0E80EF11CD0E0C0E0062F10E0B8010F
:100950000C2E02C0759567950A94E2F76170F70155
:1009600081917F010E9481022196C430D10579F7DF
:10097000C601DF91CF911F910F91FF90EF90DF9013
:10098000CF900C948004CF92DF92EF92FF920F935E
:100990001F93CF93DF93EC01F62E642F8C810E947E
:1009A00081028D818F3F19F060E00E9481020F2D3E
:1009B00010E08F8584FF25C06E0187E0C80ED11C32
:1009C000F12CE12CB8010E2C02C0759567950A94A4
:1009D000E2F76170F60181916F010E948102FFEFE1
:1009E000EF1AFF0A88E0E816F10461F7CE01DF9103
:1009F000CF911F910F91FF90EF90DF90CF900C94CB
:100A00008004B80184E0759567958A95E1F7CE0179
:100A10000E9496046F2DCE01DF91CF911F910F910F
:100A2000FF90EF90DF90CF900C94960440E0682FF9
:100A30008DEF92E00C94C30481E00E9416058BE3D5
:100A40009FE10197F1F70895CF93DF93823029F466
:100A500090910C03986090930C0380931003109274
:100A6000110380E48093120380E18093130380E5F7
:100A70008093140361E0809101030E94B30280918E
:100A800002038F3F19F061E00E94B30261E08091A0
:100A900003030E94B302CDEFD2E09E012D5F3240EE
:100AA00080910C0384FD0BC084E090E02196281710
:100AB000390744F461E08E810E94B302EECF88E0F2
:100AC00090E0F4CF8BE39DE00197F1F760E0809137
:100AD00001030E94810260E0809103030E94810271
:100AE000809102038F3F19F060E00E9481028091A3
:100AF0000C0384FD34C063E08DEF92E00E94960405
:100B0000CBE4D6E4CE010197F1F763E08DEF92E0FC
:100B10000E9496042197F1F763E08DEF92E00E9426
:100B2000960483E592E00197F1F762E08DEF92E0A1
:100B30000E94960480910C0380620E94160584E056
:100B400080930D038CE00E9416050E941C0582E034
:100B500080930E0386E0DF91CF910C94160580629E
:100B60000E9416058BE496E40197F1F780910C033F
:100B700080620E94160583E592E00197F1F780916B
:100B80000C0380620E941605D5CF9091100369175F
:100B900010F06FEF690FE62FF0E0E350FD4F9489FE
:100BA000890F80680C94160541E00E94C30481E01F
:100BB00090E00895FB0101900020E9F73197AF0123
:100BC000461B570BDC01ED91FC910280F381E02D77
:100BD00009948F929F92AF92BF92EF92FF920F93E0
:100BE0001F93CF93DF93CDB7DEB7A1970FB6F894DD
:100BF000DEBF0FBECDBF7C01FA01CB0119A22230AE
:100C000008F42AE08E010F5D1F4F822E912CB12C2B
:100C1000A12CBF01A50194010E94AA0CF901CA01EF
:100C20006A300CF5605DD8016E938D01232B242B67
:100C3000252B79F790E080E0109721F0BD01C701E6
:100C40000E94DA05A1960FB6F894DEBF0FBECDBFA5
:100C5000DF91CF911F910F91FF90EF90BF90AF90D8
:100C60009F908F900895695CDECFCF93DF93BC0196
:100C700081EF91E00E94DA05EC016CE371E081EF15
:100C800091E00E94DA058C0F9D1FDF91CF910895AE
:100C90008F929F92AF92BF92CF92DF92EF92FF928C
:100CA0000F931F93CF93DF93EC016A017B01AB019C
:100CB0009601CB01B6010E94A50C6FE371E0811192
:100CC00026C046015701E894B7F82FEF3FEF4FE7F2
:100CD0005FE7C501B4010E94A50C81110CC02FEF84
:100CE0003FEF4FE75FE7C501B4010E94DB0A63E411
:100CF00071E0181664F02FEF3FEF4FE75FE4C70194
:100D0000B6010E94330C18168CF467E471E0CE0132
:100D1000DF91CF911F910F91FF90EF90DF90CF90D7
:100D2000BF90AF909F908F900C94DA052FEF3FEF1C
:100D30004FE75FECC701B6010E94DB0A87FDE5CFF4
:100D400020E030E0A901C701B6010E94DB0A10E0F3
:100D500000E087FF0DC0E881F9810190F081E02D6E
:100D60006DE2CE0109958C01F7FAF094F7F8F09452
:100D70002AE037ED43EA5BE3C701B6010E946F0A40
:100D80004B015C010E94520B6B017C010E94810BA4
:100D90009B01AC01C501B4010E946E0A4B015C01CC
:100DA0002AE0B701A601CE010E94E905080F191F2C
:100DB000E881F9810190F081E02D6EE2CE01099584
:100DC000080F191F20E030E040E251E4C501B401F2
:100DD0000E94380C4B015C010E94520B6B01F12CFC
:100DE000E12C2AE0B701A601CE010E94E905080F17
:100DF000191FC701B6010E94810B9B01AC01C501FF
:100E0000B4010E946E0A20E030E040E251E40E940A
:100E1000380C0E94520BAB0170E060E02AE0CE017A
:100E20000E94E905800F911FDF91CF911F910F91D3
:100E3000FF90EF90DF90CF90BF90AF909F908F90FA
:100E400008950C94DA051F920F920FB60F92112499
:100E50002F933F934F935F936F937F938F939F93C2
:100E6000AF93BF93EF93FF9381EF91E00E949D01B9
:100E7000FF91EF91BF91AF919F918F917F916F9172
:100E80005F914F913F912F910F900FBE0F901F9048
:100E900018951F920F920FB60F9211242F938F93D4
:100EA0009F93EF93FF93E0910102F0910202808102
:100EB000E0910702F091080282FD1BC090818091B1
:100EC0000A028F5F8F7320910B02821741F0E0912D
:100ED0000A02F0E0EF50FE4F958F80930A02FF91D7
:100EE000EF919F918F912F910F900FBE0F901F90B8
:100EF00018958081F4CF1F920F920FB60F92112494
:100F00002F933F938F939F93AF93BF938091ED0166
:100F10009091EE01A091EF01B091F0013091E801C4
:100F200023E0230F2D3758F50196A11DB11D209305
:100F3000E8018093ED019093EE01A093EF01B0934F
:100F4000F0018091E9019091EA01A091EB01B0914B
:100F5000EC010196A11DB11D8093E9019093EA0176
:100F6000A093EB01B093EC01BF91AF919F918F9152
:100F70003F912F910F900FBE0F901F90189526E86C
:100F8000230F0296A11DB11DD2CF1092F401109231
:100F9000F30188EE93E0A0E0B0E08093F501909338
:100FA000F601A093F701B093F80188E191E09093E6
:100FB000F2018093F10185EC90E09093FE01809323
:100FC000FD0184EC90E0909300028093FF0180EC9F
:100FD00090E0909302028093010281EC90E0909364
:100FE00004028093030282EC90E0909306028093C7
:100FF000050286EC90E0909308028093070210921D
:101000000A0210920B0210920C0210920D02109222
:1010100000031092FF0284E391E09093FE0280931C
:10102000FD028CE0809301038FEF809302038BE03D
:101030008093030385E08093040384E08093050399
:1010400083E08093060382E08093070310920803F5
:101050001092090310920A0310920B0310920C03D2
:1010600081E00E9424051092900210929402109246
:101070009302109295028AE291E090938F028093FE
:101080008E02EAEAF2E0108214821382158236960A
:1010900082E0E63EF807B9F784E091E09093F10230
:1010A0008093F00281E091E09093F3028093F2024A
:1010B00084E08093F40283E08093F50288E091E07D
:1010C0009093EF028093EE028AE090E09093F70213
:1010D0008093F60284EF91E09093F9028093F802F6
:1010E0001092FC021092FB021092EA021092EB02A4
:1010F0001092EC021092ED021092FA020895789488
:1011000084B5826084BD84B5816084BD85B582600C
:1011100085BD85B5816085BD80916E0081608093BD
:101120006E00109281008091810082608093810026
:101130008091810081608093810080918000816036
:10114000809380008091B10084608093B100809191
:10115000B00081608093B00080917A0084608093B9
:101160007A0080917A00826080937A0080917A0080
:10117000816080937A0080917A00806880937A0001
:101180001092C10083E08093000182E00E94240558
:10119000E0910102F091020282E08083E091FD0182
:1011A000F091FE011082E091FF01F09100028FECBE
:1011B000808310920902E0910502F091060286E018
:1011C0008083E0910302F09104028081806180833A
:1011D000E0910302F0910402808188608083E091B5
:1011E0000302F0910402808180688083E091030211
:1011F000F091040280818F7D8083C0E0D0E060E0C8
:1012000081E00E94C5056BE471E08DEF92E00E94E1
:10121000210709E110E088E10E9416050E945704A9
:101220004B015C0186E9C82ED12CE12CF12C0E94E7
:101230005704681979098A099B09683E734081053A
:101240009105A8F321E0C21AD108E108F10888EE5F
:10125000880E83E0981EA11CB11CC114D104E104C6
:10126000F10429F701501109B1F60E941C0560E054
:1012700081E00E94C50562E771E08DEF92E00E9477
:10128000210761E081E00E94C5056CE771E08DEF08
:1012900092E00E9421070E94F302182F0E941C0571
:1012A000113309F07CC060E081E00E94C5056AE866
:1012B00071E08DEF92E00E94210761E081E00E94E1
:1012C000C50569E971E08DEF92E00E9421070E9457
:1012D000F302182F0E941C058091000120E4829FD8
:1012E000C0011124846080937C0080917A00806426
:1012F00080937A0080917A0086FDFCCF80917800FF
:1013000060917900762F682F072E000C880B990BBF
:101310000E94830B2EE037E34CED5DE30E94380C16
:101320006B017C01113309F045C061E080E00E944F
:10133000C50565EA71E08DEF92E00E94210760E04B
:1013400080E00E94C50566EB71E08DEF92E00E949F
:10135000210760E089E00E94C505B701A6018DEF75
:1013600092E00E9448066AED71E08DEF92E00E94E3
:10137000210762EC71E081EF91E00E942107B70143
:10138000A60181EF91E00E94480686ED91E00E945F
:1013900035060E94F3028033E1F70E941C05209776
:1013A00009F42DCF0E948901882309F428CF0E94D7
:1013B000000025CF123309F04DC020E030E040E1BD
:1013C00051E40E94380C20E030E040EA50E40E94F2
:1013D000E00A20E030E040E052E40E946F0A6B0136
:1013E0007C0161E080E00E94C50565EA71E08DEF57
:1013F00092E00E94210760E080E00E94C50566EB54
:1014000071E08DEF92E00E94210760E089E00E9488
:10141000C505B701A6018DEF92E00E94480661EE76
:1014200071E08DEF92E00E94210762EC71E081EFA4
:1014300091E00E942107B701A60181EF91E00E948F
:1014400048068DED91E00E9435060E94F30280333C
:10145000E1F7A3CF133309F0A2CF20E030E848E84A
:1014600053E40E946F0A6B017C0161E080E00E94FE
:10147000C50565EA71E08DEF92E00E94210760E00A
:1014800080E00E94C50566EB71E08DEF92E00E945E
:10149000210760E089E00E94C505B701A6018DEF34
:1014A00092E00E94480664EE71E08DEF92E00E94A7
:1014B000210762EC71E081EF91E00E942107B70102
:1014C000A60181EF91E00E94480684EE91E00E941F
:1014D00035060E94F3028033E1F75FCF5058BB27F7
:1014E000AA270E94860A0C94F90B0E94EB0B38F095
:1014F0000E94F20B20F039F49F3F19F426F40C946B
:10150000E80B0EF4E095E7FB0C94E20BE92F0E9448
:101510000A0C58F3BA17620773078407950720F07F
:1015200079F4A6F50C942C0C0EF4E0950B2EBA2F42
:10153000A02D0B01B90190010C01CA01A0011124D9
:10154000FF27591B99F0593F50F4503E68F11A1685
:10155000F040A22F232F342F4427585FF3CF469516
:1015600037952795A795F0405395C9F77EF41F1638
:10157000BA0B620B730B840BBAF09150A1F0FF0F02
:10158000BB1F661F771F881FC2F70EC0BA0F621FEE
:10159000731F841F48F4879577956795B795F795DE
:1015A0009E3F08F0B0CF9395880F08F09927EE0F73
:1015B0009795879508950E94BE0B08F481E00895E1
:1015C0000E94F40A0C94F90B0E94F20B58F00E944E
:1015D000EB0B40F029F45F3F29F00C94E20B511122
:1015E0000C942D0C0C94E80B0E940A0C68F39923C0
:1015F000B1F3552391F3951B550BBB27AA2762170F
:101600007307840738F09F5F5F4F220F331F441F1B
:10161000AA1FA9F335D00E2E3AF0E0E832D091504F
:101620005040E695001CCAF72BD0FE2F29D0660F3C
:10163000771F881FBB1F261737074807AB07B0E87F
:1016400009F0BB0B802DBF01FF2793585F4F3AF085
:101650009E3F510578F00C94E20B0C942D0C5F3FEB
:10166000E4F3983ED4F3869577956795B795F7950B
:101670009F5FC9F7880F911D9695879597F90895F3
:10168000E1E0660F771F881FBB1F6217730784078F
:10169000BA0720F0621B730B840BBA0BEE1F88F79E
:1016A000E09508950E94120C88F09F5798F0B92F8A
:1016B0009927B751B0F0E1F0660F771F881F991F87
:1016C0001AF0BA95C9F714C0B13091F00E942C0CF1
:1016D000B1E008950C942C0C672F782F8827B85F01
:1016E00039F0B93FCCF3869577956795B395D9F7DF
:1016F0003EF490958095709561957F4F8F4F9F4FE9
:101700000895E89409C097FB3EF4909580957095F4
:1017100061957F4F8F4F9F4F9923A9F0F92F96E93D
:10172000BB279395F695879577956795B795F111B2
:10173000F8CFFAF4BB0F11F460FF1BC06F5F7F4F4F
:101740008F4F9F4F16C0882311F096E911C0772361
:1017500021F09EE8872F762F05C0662371F096E86A
:10176000862F70E060E02AF09A95660F771F881F39
:10177000DAF7880F9695879597F90895990F0008DD
:10178000550FAA0BE0E8FEEF16161706E807F90753
:10179000C0F012161306E407F50798F0621B730BEE
:1017A000840B950B39F40A2661F0232B242B252B6F
:1017B00021F408950A2609F4A140A6958FEF811D12
:1017C000811D089597F99F6780E870E060E00895B3
:1017D0009FEF80EC089500240A9416161706180649
:1017E0000906089500240A94121613061406050625
:1017F0000895092E0394000C11F4882352F0BB0FB6
:1018000040F4BF2B11F460FF04C06F5F7F4F8F4F18
:101810009F4F089557FD9058440F551F59F05F3F53
:1018200071F04795880F97FB991F61F09F3F79F002
:1018300087950895121613061406551FF2CF469584
:10184000F1DF08C0161617061806991FF1CF869506
:101850007105610508940895E894BB2766277727EA
:10186000CB0197F908950E94BE0B08F48FEF0895FD
:101870000E944B0C0C94F90B0E94EB0B38F00E9469
:10188000F20B20F0952311F00C94E20B0C94E80B72
:1018900011240C942D0C0E940A0C70F3959FC1F337
:1018A000950F50E0551F629FF001729FBB27F00D0E
:1018B000B11D639FAA27F00DB11DAA1F649F662763
:1018C000B00DA11D661F829F2227B00DA11D621FB2
:1018D000739FB00DA11D621F839FA00D611D221F6C
:1018E000749F3327A00D611D231F849F600D211D50
:1018F000822F762F6A2F11249F5750409AF0F1F0D3
:1019000088234AF0EE0FFF1FBB1F661F771F881F3B
:1019100091505040A9F79E3F510580F00C94E20B86
:101920000C942D0C5F3FE4F3983ED4F386957795A5
:101930006795B795F795E7959F5FC1F7FE2B880FE1
:10194000911D9695879597F908950E94BE0B880B77
:10195000990B0895A1E21A2EAA1BBB1BFD010DC015
:10196000AA1FBB1FEE1FFF1FA217B307E407F5074F
:1019700020F0A21BB30BE40BF50B661F771F881F2B
:10198000991F1A9469F760957095809590959B01C1
:10199000AC01BD01CF010895EE0FFF1F0590F4913A
:0819A000E02D0994F894FFCF3B
:1019A8000108090A0E0F1011313233343536373831
:1019B800392A302300000000BF011F014C010C022E
:1019C8007D015B016F0100000000EF02AF027E02A3
:1019D80000000000D4051F017D047C040D0A006E80
:1019E800616E00696E66006F7666002A2A2A2057A3
:1019F800656C636F6D6520746F206F7572206172FE
:101A08006475696E6F2070726F6A656374202A2A24
:101A18002A005072657373202D203100666F722082
:101A2800726F6F6D2074656D700053656C656374BB
:101A380020556E6974202D2000312D4320322D460B
:101A480020332D4B005072657373203020746F2043
:101A5800657869742E00526F6F6D2074656D203A39
:101A68002000526F6F6D2074656D706572617475BA
:101A78007265203A20002064656720430020646571
:081A880067204600204B00001E
:00000001FF
